{
  "contractName": "Quiz",
  "abi": [
    {
      "constant": true,
      "inputs": [
        {
          "name": "",
          "type": "uint256"
        }
      ],
      "name": "Participant_Addresses",
      "outputs": [
        {
          "name": "",
          "type": "address"
        }
      ],
      "payable": false,
      "stateMutability": "view",
      "type": "function"
    },
    {
      "constant": true,
      "inputs": [],
      "name": "Starttime",
      "outputs": [
        {
          "name": "",
          "type": "uint256"
        }
      ],
      "payable": false,
      "stateMutability": "view",
      "type": "function"
    },
    {
      "constant": true,
      "inputs": [],
      "name": "Claimed_Refund",
      "outputs": [
        {
          "name": "",
          "type": "bool"
        }
      ],
      "payable": false,
      "stateMutability": "view",
      "type": "function"
    },
    {
      "constant": true,
      "inputs": [],
      "name": "Max_Reveal_OrigAns_time",
      "outputs": [
        {
          "name": "",
          "type": "uint256"
        }
      ],
      "payable": false,
      "stateMutability": "view",
      "type": "function"
    },
    {
      "constant": true,
      "inputs": [],
      "name": "Max_Reveal_Ans_time",
      "outputs": [
        {
          "name": "",
          "type": "uint256"
        }
      ],
      "payable": false,
      "stateMutability": "view",
      "type": "function"
    },
    {
      "constant": true,
      "inputs": [],
      "name": "Total_Fee",
      "outputs": [
        {
          "name": "",
          "type": "uint256"
        }
      ],
      "payable": false,
      "stateMutability": "view",
      "type": "function"
    },
    {
      "constant": true,
      "inputs": [
        {
          "name": "",
          "type": "address"
        }
      ],
      "name": "Participants",
      "outputs": [
        {
          "name": "",
          "type": "bool"
        }
      ],
      "payable": false,
      "stateMutability": "view",
      "type": "function"
    },
    {
      "constant": true,
      "inputs": [
        {
          "name": "",
          "type": "uint256"
        }
      ],
      "name": "Answers_hash",
      "outputs": [
        {
          "name": "",
          "type": "bytes32"
        }
      ],
      "payable": false,
      "stateMutability": "view",
      "type": "function"
    },
    {
      "constant": true,
      "inputs": [],
      "name": "Num_Participants",
      "outputs": [
        {
          "name": "",
          "type": "uint256"
        }
      ],
      "payable": false,
      "stateMutability": "view",
      "type": "function"
    },
    {
      "constant": true,
      "inputs": [],
      "name": "Max_Participants",
      "outputs": [
        {
          "name": "",
          "type": "uint256"
        }
      ],
      "payable": false,
      "stateMutability": "view",
      "type": "function"
    },
    {
      "constant": true,
      "inputs": [],
      "name": "Owner",
      "outputs": [
        {
          "name": "",
          "type": "address"
        }
      ],
      "payable": false,
      "stateMutability": "view",
      "type": "function"
    },
    {
      "constant": true,
      "inputs": [
        {
          "name": "",
          "type": "uint256"
        }
      ],
      "name": "Closing_times",
      "outputs": [
        {
          "name": "",
          "type": "uint256"
        }
      ],
      "payable": false,
      "stateMutability": "view",
      "type": "function"
    },
    {
      "constant": true,
      "inputs": [],
      "name": "Participation_Fee",
      "outputs": [
        {
          "name": "",
          "type": "uint256"
        }
      ],
      "payable": false,
      "stateMutability": "view",
      "type": "function"
    },
    {
      "constant": true,
      "inputs": [
        {
          "name": "",
          "type": "uint256"
        }
      ],
      "name": "Answers",
      "outputs": [
        {
          "name": "",
          "type": "uint256"
        }
      ],
      "payable": false,
      "stateMutability": "view",
      "type": "function"
    },
    {
      "constant": true,
      "inputs": [],
      "name": "Revealtime",
      "outputs": [
        {
          "name": "",
          "type": "uint256"
        }
      ],
      "payable": false,
      "stateMutability": "view",
      "type": "function"
    },
    {
      "constant": true,
      "inputs": [],
      "name": "Endtime",
      "outputs": [
        {
          "name": "",
          "type": "uint256"
        }
      ],
      "payable": false,
      "stateMutability": "view",
      "type": "function"
    },
    {
      "inputs": [
        {
          "name": "_n",
          "type": "uint256"
        },
        {
          "name": "_pfee",
          "type": "uint256"
        },
        {
          "name": "_starttime",
          "type": "uint256"
        }
      ],
      "payable": false,
      "stateMutability": "nonpayable",
      "type": "constructor"
    },
    {
      "constant": false,
      "inputs": [],
      "name": "RegisterParticipants",
      "outputs": [],
      "payable": true,
      "stateMutability": "payable",
      "type": "function"
    },
    {
      "constant": false,
      "inputs": [
        {
          "name": "q1",
          "type": "string"
        },
        {
          "name": "q2",
          "type": "string"
        },
        {
          "name": "q3",
          "type": "string"
        },
        {
          "name": "q4",
          "type": "string"
        },
        {
          "name": "answers",
          "type": "uint256[4]"
        },
        {
          "name": "secret",
          "type": "bytes32"
        },
        {
          "name": "close_times",
          "type": "uint256[4]"
        },
        {
          "name": "_endtime",
          "type": "uint256"
        }
      ],
      "name": "StartQuiz",
      "outputs": [],
      "payable": false,
      "stateMutability": "nonpayable",
      "type": "function"
    },
    {
      "constant": false,
      "inputs": [
        {
          "name": "num",
          "type": "uint256"
        }
      ],
      "name": "OpenQues",
      "outputs": [
        {
          "name": "",
          "type": "string"
        }
      ],
      "payable": false,
      "stateMutability": "nonpayable",
      "type": "function"
    },
    {
      "constant": false,
      "inputs": [
        {
          "name": "num",
          "type": "uint256"
        },
        {
          "name": "ans",
          "type": "uint256"
        },
        {
          "name": "secret",
          "type": "bytes32"
        }
      ],
      "name": "SubmitAnswer",
      "outputs": [],
      "payable": false,
      "stateMutability": "nonpayable",
      "type": "function"
    },
    {
      "constant": false,
      "inputs": [
        {
          "name": "num",
          "type": "uint256"
        },
        {
          "name": "ans",
          "type": "uint256"
        },
        {
          "name": "secret",
          "type": "bytes32"
        }
      ],
      "name": "RevealAnswer",
      "outputs": [],
      "payable": false,
      "stateMutability": "nonpayable",
      "type": "function"
    },
    {
      "constant": false,
      "inputs": [
        {
          "name": "num",
          "type": "uint256"
        },
        {
          "name": "ans",
          "type": "uint256"
        },
        {
          "name": "secret",
          "type": "bytes32"
        }
      ],
      "name": "RevealOriginalAnswer",
      "outputs": [],
      "payable": false,
      "stateMutability": "nonpayable",
      "type": "function"
    },
    {
      "constant": false,
      "inputs": [],
      "name": "GetScores",
      "outputs": [],
      "payable": false,
      "stateMutability": "nonpayable",
      "type": "function"
    }
  ],
  "bytecode": "0x60806040526005600b556001601c5534801561001a57600080fd5b50604051606080612afc8339810180604052810190808051906020019092919080519060200190929190805190602001909291905050506000831180156100615750600082115b801561006d5750600081115b15156100e1576040517f08c379a000000000000000000000000000000000000000000000000000000000815260040180806020018281038252601c8152602001807f696e76616c696420696e7075747320746f207374617274207175697a0000000081525060200191505060405180910390fd5b33600460006101000a81548173ffffffffffffffffffffffffffffffffffffffff021916908373ffffffffffffffffffffffffffffffffffffffff16021790555060006005819055508260068190555081600781905550804201600c819055505050506129a9806101536000396000f300608060405260043610610133576000357c0100000000000000000000000000000000000000000000000000000000900463ffffffff16806305c60985146101385780630c6c4aed146101a557806310b3d6ce146101d05780632303ac40146101da57806326cdc68d1461038b578063275a7026146103ba578063301335bd146103e557806331e4e752146103fc5780634146db39146104275780634267f90514610452578063595aa13d146104f857806366c767a7146105535780637cb5f0841461059c57806385102c3c146105c75780638513347f1461060c578063ac3029f014610651578063b4a99a4e1461067c578063d6a42722146106d3578063ded4824314610714578063e58158ce1461073f578063e80eae5d14610780578063ef1c9a09146107ab578063f108c123146107d6575b600080fd5b34801561014457600080fd5b506101636004803603810190808035906020019092919050505061081b565b604051808273ffffffffffffffffffffffffffffffffffffffff1673ffffffffffffffffffffffffffffffffffffffff16815260200191505060405180910390f35b3480156101b157600080fd5b506101ba610859565b6040518082815260200191505060405180910390f35b6101d861085f565b005b3480156101e657600080fd5b50610389600480360381019080803590602001908201803590602001908080601f0160208091040260200160405190810160405280939291908181526020018383808284378201915050505050509192919290803590602001908201803590602001908080601f0160208091040260200160405190810160405280939291908181526020018383808284378201915050505050509192919290803590602001908201803590602001908080601f0160208091040260200160405190810160405280939291908181526020018383808284378201915050505050509192919290803590602001908201803590602001908080601f016020809104026020016040519081016040528093929190818152602001838380828437820191505050505050919291929080608001906004806020026040519081016040528092919082600460200280828437820191505050505091929192908035600019169060200190929190806080019060048060200260405190810160405280929190826004602002808284378201915050505050919291929080359060200190929190505050610c58565b005b34801561039757600080fd5b506103a0611192565b604051808215151515815260200191505060405180910390f35b3480156103c657600080fd5b506103cf6111a5565b6040518082815260200191505060405180910390f35b3480156103f157600080fd5b506103fa6111ab565b005b34801561040857600080fd5b5061041161170a565b6040518082815260200191505060405180910390f35b34801561043357600080fd5b5061043c611710565b6040518082815260200191505060405180910390f35b34801561045e57600080fd5b5061047d60048036038101908080359060200190929190505050611716565b6040518080602001828103825283818151815260200191508051906020019080838360005b838110156104bd5780820151818401526020810190506104a2565b50505050905090810190601f1680156104ea5780820380516001836020036101000a031916815260200191505b509250505060405180910390f35b34801561050457600080fd5b50610539600480360381019080803573ffffffffffffffffffffffffffffffffffffffff169060200190929190505050611b17565b604051808215151515815260200191505060405180910390f35b34801561055f57600080fd5b5061057e60048036038101908080359060200190929190505050611b37565b60405180826000191660001916815260200191505060405180910390f35b3480156105a857600080fd5b506105b1611b51565b6040518082815260200191505060405180910390f35b3480156105d357600080fd5b5061060a60048036038101908080359060200190929190803590602001909291908035600019169060200190929190505050611b57565b005b34801561061857600080fd5b5061064f600480360381019080803590602001909291908035906020019092919080356000191690602001909291905050506120ad565b005b34801561065d57600080fd5b50610666612534565b6040518082815260200191505060405180910390f35b34801561068857600080fd5b5061069161253a565b604051808273ffffffffffffffffffffffffffffffffffffffff1673ffffffffffffffffffffffffffffffffffffffff16815260200191505060405180910390f35b3480156106df57600080fd5b506106fe60048036038101908080359060200190929190505050612560565b6040518082815260200191505060405180910390f35b34801561072057600080fd5b5061072961257a565b6040518082815260200191505060405180910390f35b34801561074b57600080fd5b5061076a60048036038101908080359060200190929190505050612580565b6040518082815260200191505060405180910390f35b34801561078c57600080fd5b5061079561259a565b6040518082815260200191505060405180910390f35b3480156107b757600080fd5b506107c06125a0565b6040518082815260200191505060405180910390f35b3480156107e257600080fd5b50610819600480360381019080803590602001909291908035906020019092919080356000191690602001909291905050506125a6565b005b600a8181548110151561082a57fe5b906000526020600020016000915054906101000a900473ffffffffffffffffffffffffffffffffffffffff1681565b600c5481565b6000801515600960003373ffffffffffffffffffffffffffffffffffffffff1673ffffffffffffffffffffffffffffffffffffffff16815260200190815260200160002060009054906101000a900460ff161515141515610928576040517f08c379a00000000000000000000000000000000000000000000000000000000081526004018080602001828103825260178152602001807f5573657220616c7265616479207265676973746572656400000000000000000081525060200191505060405180910390fd5b60075434101515156109a2576040517f08c379a00000000000000000000000000000000000000000000000000000000081526004018080602001828103825260108152602001807f46656520696e73756666696369656e740000000000000000000000000000000081525060200191505060405180910390fd5b600c5442101515610a1b576040517f08c379a00000000000000000000000000000000000000000000000000000000081526004018080602001828103825260188152602001807f54696d6520757020666f7220726567697374726174696f6e000000000000000081525060200191505060405180910390fd5b600654600554101515610a96576040517f08c379a000000000000000000000000000000000000000000000000000000000815260040180806020018281038252601b8152602001807f5061727469636970616e7473206c696d6974206578636565646564000000000081525060200191505060405180910390fd5b6001600960003373ffffffffffffffffffffffffffffffffffffffff1673ffffffffffffffffffffffffffffffffffffffff16815260200190815260200160002060006101000a81548160ff02191690831515021790555080601e60003373ffffffffffffffffffffffffffffffffffffffff1673ffffffffffffffffffffffffffffffffffffffff168152602001908152602001600020600082015481600001556001820181600101906004610b4e929190612839565b506005820181600501906004610b65929190612876565b506009820181600901906004610b7c929190612876565b509050506007543403601e60003373ffffffffffffffffffffffffffffffffffffffff1673ffffffffffffffffffffffffffffffffffffffff16815260200190815260200160002060000181905550600754600860008282540192505081905550600a3390806001815401808255809150509060018203906000526020600020016000909192909190916101000a81548173ffffffffffffffffffffffffffffffffffffffff021916908373ffffffffffffffffffffffffffffffffffffffff1602179055505060056000815480929190600101919050555050565b600080600c54421080610c705750600b54600c540142115b15610d555760001515601d60009054906101000a900460ff1615151415610d5457600091505b600554821015610d3857600754601e6000600a85815481101515610cb657fe5b9060005260206000200160009054906101000a900473ffffffffffffffffffffffffffffffffffffffff1673ffffffffffffffffffffffffffffffffffffffff1673ffffffffffffffffffffffffffffffffffffffff168152602001908152602001600020600001600082825401925050819055508180600101925050610c96565b6001601d60006101000a81548160ff0219169083151502179055505b5b600460009054906101000a900473ffffffffffffffffffffffffffffffffffffffff1673ffffffffffffffffffffffffffffffffffffffff163373ffffffffffffffffffffffffffffffffffffffff16141515610e1a576040517f08c379a00000000000000000000000000000000000000000000000000000000081526004018080602001828103825260208152602001807f4f6e6c79206f776e65722063616e2072657665616c20717565736574696f6e7381525060200191505060405180910390fd5b600c544210158015610e325750600b54600c54014211155b1515610ea6576040517f08c379a00000000000000000000000000000000000000000000000000000000081526004018080602001828103825260188152602001807f5175697a2063616e742062652073746172746564206e6f77000000000000000081525060200191505060405180910390fd5b600091505b6004821015610f8957601c548483600481101515610ec557fe5b6020020151111515610f65576040517f08c379a000000000000000000000000000000000000000000000000000000000815260040180806020018281038252602e8152602001807f4e6565642061746c656173742035206d696e73206f6620636c6f73652074696d81526020017f6520666f7220616c6c207175657300000000000000000000000000000000000081525060400191505060405180910390fd5b8382600481101515610f7357fe5b6020020151810190508180600101925050610eab565b80600b54600c5401018342011015151561100b576040517f08c379a00000000000000000000000000000000000000000000000000000000081526004018080602001828103825260128152602001807f556e6661697220656e64696e672074696d65000000000000000000000000000081525060200191505060405180910390fd5b89600090805190602001906110219291906128b3565b5088600190805190602001906110389291906128b3565b50876002908051906020019061104f9291906128b3565b5086600390805190602001906110669291906128b3565b50600091505b600482101561116557858260048110151561108357fe5b602002015185604051602001808381526020018260001916600019168152602001925050506040516020818303038152906040526040518082805190602001908083835b6020831015156110ec57805182526020820191506020810190506020830392506110c7565b6001836020036101000a038019825116818451168082178552505050505050905001915050604051809103902060108360048110151561112857fe5b018160001916905550838260048110151561113f57fe5b602002015160188360048110151561115357fe5b0181905550818060010192505061106c565b82600d8190555061012c600d5401600e8190555061012c600e5401600f8190555050505050505050505050565b601d60009054906101000a900460ff1681565b600f5481565b6000806000806000600f544211151561122c576040517f08c379a00000000000000000000000000000000000000000000000000000000081526004018080602001828103825260138152602001807f4e6f742052657665616c656420627920616c6c0000000000000000000000000081525060200191505060405180910390fd5b600093505b600484101561134457600060148560048110151561124b57fe5b015414156113335760001515601d60009054906101000a900460ff161515141561133257600092505b60055483101561131657600754601e6000600a8681548110151561129457fe5b9060005260206000200160009054906101000a900473ffffffffffffffffffffffffffffffffffffffff1673ffffffffffffffffffffffffffffffffffffffff1673ffffffffffffffffffffffffffffffffffffffff168152602001908152602001600020600001600082825401925050819055508280600101935050611274565b6001601d60006101000a81548160ff0219169083151502179055505b5b600094508380600101945050611231565b6000915060001515601d60009054906101000a900460ff16151514156114f557600093505b60048410156114ed57600092505b6005548310156114e05760148460048110151561139057fe5b0154601e6000600a868154811015156113a557fe5b9060005260206000200160009054906101000a900473ffffffffffffffffffffffffffffffffffffffff1673ffffffffffffffffffffffffffffffffffffffff1673ffffffffffffffffffffffffffffffffffffffff1681526020019081526020016000206005018560048110151561141a57fe5b015414156114d357601060085460030281151561143357fe5b04601e6000600a8681548110151561144757fe5b9060005260206000200160009054906101000a900473ffffffffffffffffffffffffffffffffffffffff1673ffffffffffffffffffffffffffffffffffffffff1673ffffffffffffffffffffffffffffffffffffffff1681526020019081526020016000206000016000828254019250508190555060106008546003028115156114cd57fe5b04820191505b8280600101935050611377565b8380600101945050611369565b816008540394505b600092505b60055483101561169a57601e6000600a8581548110151561151757fe5b9060005260206000200160009054906101000a900473ffffffffffffffffffffffffffffffffffffffff1673ffffffffffffffffffffffffffffffffffffffff1673ffffffffffffffffffffffffffffffffffffffff1681526020019081526020016000206000015490506000601e6000600a8681548110151561159757fe5b9060005260206000200160009054906101000a900473ffffffffffffffffffffffffffffffffffffffff1673ffffffffffffffffffffffffffffffffffffffff1673ffffffffffffffffffffffffffffffffffffffff16815260200190815260200160002060000181905550600081111561168d57600a8381548110151561161b57fe5b9060005260206000200160009054906101000a900473ffffffffffffffffffffffffffffffffffffffff1673ffffffffffffffffffffffffffffffffffffffff166108fc829081150290604051600060405180830381858888f1935050505015801561168b573d6000803e3d6000fd5b505b82806001019350506114fa565b600460009054906101000a900473ffffffffffffffffffffffffffffffffffffffff1673ffffffffffffffffffffffffffffffffffffffff166108fc869081150290604051600060405180830381858888f19350505050158015611702573d6000803e3d6000fd5b505050505050565b600e5481565b60085481565b60606000600460009054906101000a900473ffffffffffffffffffffffffffffffffffffffff1673ffffffffffffffffffffffffffffffffffffffff163373ffffffffffffffffffffffffffffffffffffffff1614151515611806576040517f08c379a00000000000000000000000000000000000000000000000000000000081526004018080602001828103825260338152602001807f596f7520686176652073657420746865207175657374696f6e7320616c72656181526020017f647920736f20796f75206d757374206b6e6f770000000000000000000000000081525060400191505060405180910390fd5b60001515600960003373ffffffffffffffffffffffffffffffffffffffff1673ffffffffffffffffffffffffffffffffffffffff16815260200190815260200160002060009054906101000a900460ff161515141515156118cf576040517f08c379a00000000000000000000000000000000000000000000000000000000081526004018080602001828103825260118152602001807f556e72656769737465726564207573657200000000000000000000000000000081525060200191505060405180910390fd5b6000831180156118df5750600583105b1515611979576040517f08c379a00000000000000000000000000000000000000000000000000000000081526004018080602001828103825260298152602001807f4f6e6c79207175657374696f6e206e756d6265727320312c322c332c3420617281526020017f652070726573656e74000000000000000000000000000000000000000000000081525060400191505060405180910390fd5b600183141561198b57600090506119c0565b600283141561199d57600190506119bf565b60038314156119af57600290506119be565b60048314156119bd57600390505b5b5b5b6000601e60003373ffffffffffffffffffffffffffffffffffffffff1673ffffffffffffffffffffffffffffffffffffffff16815260200190815260200160002060090160018503600481101515611a1457fe5b01541415611a755742601e60003373ffffffffffffffffffffffffffffffffffffffff1673ffffffffffffffffffffffffffffffffffffffff16815260200190815260200160002060090160018503600481101515611a6f57fe5b01819055505b808054600181600116156101000203166002900480601f016020809104026020016040519081016040528092919081815260200182805460018160011615610100020316600290048015611b0a5780601f10611adf57610100808354040283529160200191611b0a565b820191906000526020600020905b815481529060010190602001808311611aed57829003601f168201915b5050505050915050919050565b60096020528060005260406000206000915054906101000a900460ff1681565b601081600481101515611b4657fe5b016000915090505481565b60055481565b6000600460009054906101000a900473ffffffffffffffffffffffffffffffffffffffff1673ffffffffffffffffffffffffffffffffffffffff163373ffffffffffffffffffffffffffffffffffffffff1614151515611c1f576040517f08c379a00000000000000000000000000000000000000000000000000000000081526004018080602001828103825260118152602001807f596f752063616e6e6f74207375626d697400000000000000000000000000000081525060200191505060405180910390fd5b60001515600960003373ffffffffffffffffffffffffffffffffffffffff1673ffffffffffffffffffffffffffffffffffffffff16815260200190815260200160002060009054906101000a900460ff16151514151515611ce8576040517f08c379a00000000000000000000000000000000000000000000000000000000081526004018080602001828103825260118152602001807f556e72656769737465726564207573657200000000000000000000000000000081525060200191505060405180910390fd5b600084118015611cf85750600584105b1515611d92576040517f08c379a00000000000000000000000000000000000000000000000000000000081526004018080602001828103825260298152602001807f4f6e6c79207175657374696f6e206e756d6265727320312c322c332c3420617281526020017f652070726573656e74000000000000000000000000000000000000000000000081525060400191505060405180910390fd5b6000601e60003373ffffffffffffffffffffffffffffffffffffffff1673ffffffffffffffffffffffffffffffffffffffff16815260200190815260200160002060090160018603600481101515611de657fe5b015414151515611e5e576040517f08c379a000000000000000000000000000000000000000000000000000000000815260040180806020018281038252601d8152602001807f596f75206469646e6f74206f70656e2074686174207175657374696f6e00000081525060200191505060405180910390fd5b42601860018603600481101515611e7157fe5b0154601e60003373ffffffffffffffffffffffffffffffffffffffff1673ffffffffffffffffffffffffffffffffffffffff16815260200190815260200160002060090160018703600481101515611ec557fe5b015401111515611f3d576040517f08c379a000000000000000000000000000000000000000000000000000000000815260040180806020018281038252600c8152602001807f536f7272792074696d657570000000000000000000000000000000000000000081525060200191505060405180910390fd5b600d544211151515611fb7576040517f08c379a00000000000000000000000000000000000000000000000000000000081526004018080602001828103825260138152602001807f49747320616c72656164792054696d652075700000000000000000000000000081525060200191505060405180910390fd5b8282604051602001808381526020018260001916600019168152602001925050506040516020818303038152906040526040518082805190602001908083835b60208310151561201c5780518252602082019150602081019050602083039250611ff7565b6001836020036101000a0380198251168184511680821785525050505050509050019150506040518091039020905080601e60003373ffffffffffffffffffffffffffffffffffffffff1673ffffffffffffffffffffffffffffffffffffffff1681526020019081526020016000206001016001860360048110151561209e57fe5b01816000191690555050505050565b6000600460009054906101000a900473ffffffffffffffffffffffffffffffffffffffff1673ffffffffffffffffffffffffffffffffffffffff163373ffffffffffffffffffffffffffffffffffffffff1614151515612175576040517f08c379a00000000000000000000000000000000000000000000000000000000081526004018080602001828103825260118152602001807f596f752063616e6e6f742061636365737300000000000000000000000000000081525060200191505060405180910390fd5b60001515600960003373ffffffffffffffffffffffffffffffffffffffff1673ffffffffffffffffffffffffffffffffffffffff16815260200190815260200160002060009054906101000a900460ff1615151415151561223e576040517f08c379a00000000000000000000000000000000000000000000000000000000081526004018080602001828103825260118152602001807f556e72656769737465726564207573657200000000000000000000000000000081525060200191505060405180910390fd5b60008411801561224e5750600584105b15156122e8576040517f08c379a00000000000000000000000000000000000000000000000000000000081526004018080602001828103825260298152602001807f4f6e6c79207175657374696f6e206e756d6265727320312c322c332c3420617281526020017f652070726573656e74000000000000000000000000000000000000000000000081525060400191505060405180910390fd5b600e5442101580156122fc5750600f544211155b1515612370576040517f08c379a00000000000000000000000000000000000000000000000000000000081526004018080602001828103825260158152602001807f596f752063616e6e6f742072657665616c206e6f77000000000000000000000081525060200191505060405180910390fd5b8282604051602001808381526020018260001916600019168152602001925050506040516020818303038152906040526040518082805190602001908083835b6020831015156123d557805182526020820191506020810190506020830392506123b0565b6001836020036101000a038019825116818451168082178552505050505050905001915050604051809103902090508060001916601e60003373ffffffffffffffffffffffffffffffffffffffff1673ffffffffffffffffffffffffffffffffffffffff1681526020019081526020016000206001016001860360048110151561245b57fe5b0154600019161415156124d6576040517f08c379a00000000000000000000000000000000000000000000000000000000081526004018080602001828103825260158152602001807f57726f6e6720616e737765722072657665616c6564000000000000000000000081525060200191505060405180910390fd5b82601e60003373ffffffffffffffffffffffffffffffffffffffff1673ffffffffffffffffffffffffffffffffffffffff1681526020019081526020016000206005016001860360048110151561252957fe5b018190555050505050565b60065481565b600460009054906101000a900473ffffffffffffffffffffffffffffffffffffffff1681565b60188160048110151561256f57fe5b016000915090505481565b60075481565b60148160048110151561258f57fe5b016000915090505481565b600b5481565b600d5481565b6000600d5442101580156125bc5750600e544211155b1515612630576040517f08c379a00000000000000000000000000000000000000000000000000000000081526004018080602001828103825260158152602001807f596f752063616e6e6f742072657665616c206e6f77000000000000000000000081525060200191505060405180910390fd5b600460009054906101000a900473ffffffffffffffffffffffffffffffffffffffff1673ffffffffffffffffffffffffffffffffffffffff163373ffffffffffffffffffffffffffffffffffffffff161415156126f5576040517f08c379a000000000000000000000000000000000000000000000000000000000815260040180806020018281038252601f8152602001807f596f752063616e6e6f742052657665616c4f726967696e616c416e737765720081525060200191505060405180910390fd5b8282604051602001808381526020018260001916600019168152602001925050506040516020818303038152906040526040518082805190602001908083835b60208310151561275a5780518252602082019150602081019050602083039250612735565b6001836020036101000a0380198251168184511680821785525050505050509050019150506040518091039020905080600019166010600186036004811015156127a057fe5b01546000191614151561281b576040517f08c379a000000000000000000000000000000000000000000000000000000000815260040180806020018281038252601d8152602001807f5375626d697474656420616e73776572206e6f742072657665616c656400000081525060200191505060405180910390fd5b8260146001860360048110151561282e57fe5b018190555050505050565b8260048101928215612865579182015b82811115612864578254825591600101919060010190612849565b5b5090506128729190612933565b5090565b82600481019282156128a2579182015b828111156128a1578254825591600101919060010190612886565b5b5090506128af9190612958565b5090565b828054600181600116156101000203166002900490600052602060002090601f016020900481019282601f106128f457805160ff1916838001178555612922565b82800160010185558215612922579182015b82811115612921578251825591602001919060010190612906565b5b50905061292f9190612958565b5090565b61295591905b80821115612951576000816000905550600101612939565b5090565b90565b61297a91905b8082111561297657600081600090555060010161295e565b5090565b905600a165627a7a723058205bf0352b9ebf65065a1166252060116256a561512d98b300bbd61f5c5d84ad630029",
  "source": "pragma solidity ^0.4.23;\n\ncontract Quiz\n{\n    string Ques1;\n    string Ques2;\n    string Ques3;\n    string Ques4;\n    address public Owner;\n    uint public Num_Participants;\n    uint public Max_Participants;\n    uint public Participation_Fee;\n    uint public Total_Fee;\n    mapping(address => bool) public Participants;\n    address[] public Participant_Addresses;\n    uint public Revealtime = 5;\n    uint public Starttime;\n    uint public Endtime;\n    uint public Max_Reveal_Ans_time;\n    uint public Max_Reveal_OrigAns_time;\n    bytes32[4] public Answers_hash;\n    uint[4] public Answers;\n    uint[4] public Closing_times;\n    uint Min_close_time = 1;\n    bool public Claimed_Refund;\n    struct Participant\n    {\n        uint Pending_amount;\n        bytes32[4] Choice_hash;\n        uint[4] choices;\n        uint[4] Open_times;\n    }\n    \n    mapping(address => Participant) Participant_Info;\n\n    constructor(uint _n,uint _pfee,uint _starttime) public\n    {\n        //require(Owner !=0x0,\"Owner already assigned\");\n        require(_n>0 && _pfee>0 && _starttime>0,\"invalid inputs to start quiz\");\n\n        Owner = msg.sender;\n        Num_Participants = 0;\n        Max_Participants = _n;\n        Participation_Fee = _pfee;\n        Starttime = now+_starttime;\n    }\n    function RegisterParticipants() public payable\n    {\n        require(Participants[msg.sender]==false,\"User already registered\");\n        //require(msg.value>=0,\"Fee insufficient\");\n        \n        require(msg.value>=Participation_Fee,\"Fee insufficient\");\n        \n        require(now<Starttime,\"Time up for registration\");\n        require(Num_Participants<Max_Participants,\"Participants limit exceeded\");\n        Participants[msg.sender] = true;\n        Participant par;\n        Participant_Info[msg.sender] = par;\n    \n        Participant_Info[msg.sender].Pending_amount  = msg.value - Participation_Fee;\n        Total_Fee += Participation_Fee;\n        Participant_Addresses.push(msg.sender);\n        Num_Participants++;\n        \n    }\n    function StartQuiz(string q1,string q2,string q3,string q4,uint[4] answers,bytes32 secret,uint[4] close_times,uint _endtime) public\n    {\n        uint i;\n        if(now<Starttime || now>(Starttime+Revealtime))\n        {\n            if(Claimed_Refund==false)\n            {\n                for(i=0;i<Num_Participants;i++)\n                {\n                    Participant_Info[Participant_Addresses[i]].Pending_amount += Participation_Fee;\n                }\n                Claimed_Refund = true;\n            }\n        }\n\n        require(msg.sender==Owner,\"Only owner can reveal quesetions\");\n        require(now>=Starttime && now<=(Starttime+Revealtime),\"Quiz cant be started now\");\n        uint sum_closing_times;\n        \n        for(i=0;i<4;i++)\n        {\n            require(close_times[i]>Min_close_time,\"Need atleast 5 mins of close time for all ques\");\n            sum_closing_times += close_times[i];\n        }\n        require(now+_endtime>=Starttime+Revealtime+sum_closing_times,\"Unfair ending time\");\n        Ques1 = q1;\n        Ques2 = q2;\n        Ques3 = q3;\n        Ques4 = q4;\n        for(i=0;i<4;i++)\n        {\n            Answers_hash[i] =  keccak256(abi.encodePacked(answers[i],secret));\n            Closing_times[i] = close_times[i];\n        }\n        Endtime = _endtime;\n        Max_Reveal_Ans_time = Endtime + 300;\n        Max_Reveal_OrigAns_time = Max_Reveal_Ans_time + 300;\n    }\n    function OpenQues(uint num) public returns(string)\n    {\n        require(msg.sender!=Owner,\"You have set the questions already so you must know\");\n        require(Participants[msg.sender]!=false,\"Unregistered user\");\n        require(num>0 && num<5,\"Only question numbers 1,2,3,4 are present\");\n        string ques;\n        if(num==1)\n            ques = Ques1;\n        else if(num==2)\n            ques = Ques2;\n        else if(num==3)\n            ques = Ques3;\n        else if(num==4)\n            ques = Ques4;\n        if(Participant_Info[msg.sender].Open_times[num-1] ==0)\n            Participant_Info[msg.sender].Open_times[num-1] = now;\n        return ques;\n    }\n\n    function SubmitAnswer(uint num,uint ans,bytes32 secret) public\n    {\n        require(msg.sender!=Owner,\"You cannot submit\");\n        require(Participants[msg.sender]!=false,\"Unregistered user\");\n        require(num>0 && num<5,\"Only question numbers 1,2,3,4 are present\");\n        require(Participant_Info[msg.sender].Open_times[num-1]!=0,\"You didnot open that question\");\n        require(Participant_Info[msg.sender].Open_times[num-1]+Closing_times[num-1] > now,\"Sorry timeup\");\n        require(now<=Endtime,\"Its already Time up\");\n        bytes32 ans_hash = keccak256(abi.encodePacked(ans,secret));\n        Participant_Info[msg.sender].Choice_hash[num-1] = ans_hash;\n    }\n\n    function RevealAnswer(uint num,uint ans,bytes32 secret) public\n    {\n        require(msg.sender!=Owner,\"You cannot access\");\n        require(Participants[msg.sender]!=false,\"Unregistered user\");\n        require(num>0 && num<5,\"Only question numbers 1,2,3,4 are present\");\n        require(now>=Max_Reveal_Ans_time && now<=Max_Reveal_OrigAns_time,\"You cannot reveal now\");\n        bytes32 ans_hash = keccak256(abi.encodePacked(ans,secret));\n        require(Participant_Info[msg.sender].Choice_hash[num-1]==ans_hash,\"Wrong answer revealed\");\n        Participant_Info[msg.sender].choices[num-1]=ans;\n    }\n\n\n    function RevealOriginalAnswer(uint num,uint ans,bytes32 secret) public\n    {\n        require(now>=Endtime && now<=Max_Reveal_Ans_time,\"You cannot reveal now\");\n        require(msg.sender==Owner,\"You cannot RevealOriginalAnswer\");\n        bytes32 ans_hash = keccak256(abi.encodePacked(ans,secret));\n        require(Answers_hash[num-1]==ans_hash,\"Submitted answer not revealed\");\n        Answers[num-1] = ans;\n    }\n\n    function GetScores() public\n    {\n        require(now>Max_Reveal_OrigAns_time,\"Not Revealed by all\");\n        uint rem_amount;\n        uint i;\n        uint j;\n        for(i=0;i<4;i++)\n        {\n            if(Answers[i]==0)\n            {\n                if(Claimed_Refund==false)\n                {\n                    for(j=0;j<Num_Participants;j++)\n                    {\n                        Participant_Info[Participant_Addresses[j]].Pending_amount += Participation_Fee;\n                    }\n                    Claimed_Refund = true;\n                }\n            }\n            rem_amount = 0;\n        }\n        uint allocated_amount = 0;\n        if(Claimed_Refund==false)\n        {\n            for(i=0;i<4;i++)\n            {\n                for(j=0;j<Num_Participants;j++)\n                {\n                    if(Participant_Info[Participant_Addresses[j]].choices[i] == Answers[i])\n                    {\n                        Participant_Info[Participant_Addresses[j]].Pending_amount += (3*Total_Fee)/16;\n                        allocated_amount += (3*Total_Fee)/16;\n                    }\n                }\n            }\n            rem_amount = Total_Fee - allocated_amount;\n        }\n        uint amount;\n        for(j=0;j<Num_Participants;j++)\n        {\n            amount = Participant_Info[Participant_Addresses[j]].Pending_amount ;\n            Participant_Info[Participant_Addresses[j]].Pending_amount = 0;\n            if(amount>0)\n            {\n                Participant_Addresses[j].transfer(amount);\n            }\n        }\n        Owner.transfer(rem_amount);\n    }\n}\n",
  "sourcePath": "/home/vikas007/4-1/Block-Chains/Assignment2/contracts/Quiz.sol",
  "compiler": {
    "name": "solc",
    "version": "0.4.24+commit.e67f0147.Emscripten.clang"
  },
  "schemaVersion": "2.0.1",
  "updatedAt": "2018-11-01T17:42:17.943Z"
}